:020000040800F2
:100000000004002047010008B51A0008B71A0008CC
:10001000BB1A0008BF1A0008C31A0008000000003D
:10002000000000000000000000000000C71A0008E7
:10003000C91A000800000000CB1A0008951A000831
:1000400067010008670100086701000867010008F0
:1000500067010008670100080D210008670100081A
:1000600067010008670100086701000867010008D0
:1000700067010008670100086701000867010008C0
:1000800067010008670100086701000867010008B0
:10009000670100086701000867010008A120000847
:1000A0006701000867010008670100086701000890
:1000B000D723000867010008B7230008670100087C
:1000C0006701000867010008670100086701000870
:1000D0006701000867010008670100086701000860
:1000E0002320000867010008670100086701000875
:1000F0006701000867010008670100086701000840
:10010000670100086701000867010008670100082F
:10011000670100086701000867010008670100081F
:10012000670100086701000867010008670100080F
:10013000DFF80CD002F0F6F900480047811A0008F9
:1001400060020020704708488047084981F308880A
:1001500007480047FEE7FEE7FEE7FEE7FEE7FEE7AB
:10016000FEE7FEE7FEE7FEE745010008600200202B
:10017000310100080CB50020019000906C48006827
:1001800040F480306A49086000BF6948006800F4A4
:10019000003000900198401C0190009818B9019817
:1001A000B0F5A06FF1D16248006800F4003010B1E2
:1001B0000120009001E0002000900098012843D128
:1001C0005C48006840F010005A4908600846006822
:1001D00020F0030008600846006840F00200086054
:1001E000534840685249486008464068486008469D
:1001F000406840F4806048600846406820F47C1005
:1002000048600846406840F4E810486008460068C6
:1002100040F08070086000BF4548006800F0007042
:100220000028F9D04248406820F003004049486067
:100230000846406840F00200486000BF3C48406803
:1002400000F00C000828F9D10CBD10B5FFF792FFA3
:1002500010BD10B53648006840F001003449086010
:1002600008464068344908403149486008460068FB
:10027000324908402E4908600846006820F4802072
:1002800008600846406820F4FE0048604FF41F00F4
:100290008860FFF7DAFF4FF000602949086010BD61
:1002A00010B5002100200022214B5B6803F00C01F7
:1002B00021B1042906D0082928D107E0214B224C7E
:1002C000236027E01F4B204C236023E0184B5B6822
:1002D00003F47010164B5B6803F48032022303EBC7
:1002E000904022B9194B4343174C23600DE0104B4B
:1002F0005B6803F4003323B1144B4343124C236077
:1003000003E0104B4343104C236003E00D4B0E4CB5
:10031000236000BF00BF064B5B68C3F303130C4CA4
:10032000E15C094B1B68CB40074C236010BD00000B
:1003300000100240002002400000FFF8FFFFF6FE20
:1003400008ED00E000127A000000002000093D00E6
:100350000400002031490143314A1160704770B5F3
:10036000002100230F22C47804B32D4C246804F428
:10037000E064C4F5E064210AC1F10403CA40447892
:1003800004FA03F18478144021430901254C0678CE
:10039000A155047804F01F050124AC4005786D11C7
:1003A000AD0005F1E025C5F8004109E0047804F04E
:1003B0001F050124AC401C4D0678761145F82640F7
:1003C00070BD1A4A0A400243154B1B1F1A60704742
:1003D00039B1134A121D12680243114B1B1D1A60DA
:1003E00006E00F4A121D126882430D4B1B1D1A6056
:1003F0007047042808D14FF0E021096941F0040159
:100400004FF0E022116107E04FF0E021096921F08F
:1004100004014FF0E0221161704700000000FA056E
:100420000CED00E000E400E080E100E080FFFF1F51
:10043000002044490860091D0860091D0860091D65
:10044000086041483F4914310860704700213D4928
:100450008279002A3AD00A46126803689A430B460A
:100460001A600A1D126803689A430B1D1A6002790C
:1004700011440A6803681A430A60324A0832126853
:1004800003689A432F4B08331A601A1D12680368D9
:100490009A432C4B0C331A604279102A0ED11A1F42
:1004A000126803681A43274B08331A601A1D126832
:1004B00003681A43234B0C331A600DE0214942793B
:1004C00011440A6803681A430A6005E0027911447E
:1004D0000A6803689A430A6070470021016001714D
:1004E0000C21417100218171704716491031096852
:1004F0000143144A10321160704701460020114A2E
:10050000143212680A400AB1012000E0002070474E
:100510000C49143108607047014600200022094B45
:100520001B6803EA0102074B14331B680B4013B12D
:100530000AB1012000E00020704702491431086030
:100540007047000000040140FFFF0F0010B5044693
:10055000CC48844208D10121042000F02DFB002169
:10056000042000F029FB46E0C748844208D101215D
:10057000082000F021FB0021082000F01DFB3AE0DC
:10058000C248844208D10121102000F015FB00214F
:10059000102000F011FB2EE0BD48844208D101215B
:1005A000202000F009FB0021202000F005FB22E0C4
:1005B000B848844208D10121402000F0FDFA002112
:1005C000402000F0F9FA16E0B348844208D1012136
:1005D000802000F0F1FA0021802000F0EDFA0AE01E
:1005E000AE48844207D10121801500F0E5FA0021D0
:1005F000A01500F0E1FA10BD10B50121084600F089
:10060000DBFA0021012000F0D7FA10BD2DE9F041FE
:10061000024600250026002000230024002791F830
:1006200003C00CF00F0591F803C00CF0100CBCF1E6
:10063000000F03D091F802C04CEA050591F800C004
:10064000BCF1000F31D0146800202BE04FF0010CFA
:100650000CFA00F3B1F800C00CEA03069E4220D168
:1006600083004FF00F0C0CFA03F7BC4305FA03FCB0
:100670004CEA040491F803C0BCF1280F06D14FF0F6
:10068000010C0CFA00FCC2F814C00AE091F803C097
:10069000BCF1480F05D14FF0010C0CFA00FCC2F878
:1006A00010C0401C0828D1D31460B1F800C0BCF1C0
:1006B000FF0F34DD546800202EE000F1080C4FF0ED
:1006C000010808FA0CF3B1F800C00CEA03069E42D8
:1006D00021D183004FF00F0C0CFA03F7BC4305FA4D
:1006E00003FC4CEA040491F803C0BCF1280F05D1C7
:1006F00000F1080C08FA0CF8C2F8148091F803C055
:10070000BCF1480F07D100F1080C4FF0010808FABE
:100710000CF8C2F81080401C0828CED35460BDE805
:10072000F0814FF6FF710180022181700421C170B8
:1007300070470246002093680B400BB1012000E097
:10074000002070470146886880B27047024600204A
:10075000D3680B400BB1012000E000207047014638
:10076000C86880B2704701617047416170470AB143
:10077000016100E041617047C16070474FF4803211
:100780000A4382618161826182698269704702469F
:100790000020434B18684FF68073184040EA02105F
:1007A00008433F4B186070473E49C8617047F0B539
:1007B0000A46002300240021002500F00046B6F17F
:1007C000004F02D1364EF16901E0354E7168C0F339
:1007D000034583B200F44016B6F5401F08D121F05E
:1007E00070612F4E766826F070662D4F7E6012E0A5
:1007F00000F48016B6F5801F06D1032606FA05F42C
:10080000A14341F0706106E0460D360103FA06F699
:10081000B14341F0706122B1460D360103FA06F68C
:10082000314300F00046B6F1004F02D11C4EF16199
:1008300001E01B4E7160F0BD30B500228B071C0F2C
:100840000F2303FA04F2164B08338C1053F82430AC
:100850009343134C08348D1044F8253023468C10F4
:1008600053F824308C07240F00FA04F423430C4C73
:1008700008348D1044F8253030BD0A49DC31086059
:100880007047000000080140000C014000100140CA
:100890000014014000180140001C014000200140EC
:1008A0000000014000002042DF48006840F00100E5
:1008B000DD49086008464068DC490840DA4948607C
:1008C00008460068DA490840D749086008460068C9
:1008D00020F4802008600846406820F4FE0048604C
:1008E0004FF41F0088607047CF49096821F48031B8
:1008F000CD4A11601146096821F480211160B0F5DC
:10090000803F03D0B0F5802F0ED106E0C6490968BC
:1009100041F48031C44A116007E0C349096841F4D9
:10092000A021C14A116000E000BF00BF704710B5B0
:1009300001460022002300204A11012A02D1BA4CAC
:10094000236806E0022A02D1B74C236A01E0B64CC4
:10095000636A01F01F02012494401C400CB1012085
:1009600000E0002010BD38B50020009000240025D4
:1009700000BF3120FFF7DBFF05460098401C0090C8
:100980000098B0F5A06F01D0002DF2D03120FFF714
:10099000CEFF08B1012400E00024204638BD014606
:1009A0000020A14A106820F0F80040EAC100106061
:1009B0007047A04908607047024600209A4B58686B
:1009C00020F47C1042EA01031843974B58607047AB
:1009D00098490866704701460020934A506820F005
:1009E00003000843506070478F48406800F00C00D7
:1009F0007047014600208C4A506820F0F000084300
:100A00005060704701460020874A506820F4E0603B
:100A100008435060704701460020834A506820F424
:100A2000605040EAC1005060704729B17E4A527A56
:100A300002437D4B5A7204E07B4A527A82437A4BDE
:100A40005A7270477B49D8310860704701460020D0
:100A5000754A506820F440400843506070470021B8
:100A6000714A20321170704A82F82010012802D099
:100A700004280AD104E001216B4A2032117005E0FC
:100A80000521694A2032117000E000BF00BF7047A5
:100A90006949086070476449096A0143624A116202
:100AA0007047654944390860704730B5002100221D
:100AB000002400235C4D6D6805F00C0121B1042970
:100AC00005D0082923D105E05C4D056022E05B4D8F
:100AD00005601FE0544D6D6805F47012524D6D684D
:100AE00005F48034022505EB92421CB9544D554360
:100AF00005600BE04C4D6D6805F400351DB1504D9F
:100B00005543056002E04D4D5543056002E04B4DF5
:100B1000056000BF00BF444D6D6805F0F001090994
:100B2000484D6B5C0568DD4045603F4D6D6805F4E0
:100B3000E061090A434D6B5C4568DD4085603A4DD4
:100B40006D6805F46051C90A3E4D6B5C4568DD4037
:100B5000C560354D6D6805F44041890B3A4D6B5CBD
:100B6000C568B5FBF3F5056130BD29B12E4A526960
:100B700002432D4B5A6104E02B4A526982432A4BAF
:100B80005A61704729B1284A92690243264B9A61FB
:100B900004E0254A92698243234B9A61704729B148
:100BA000214AD2690243204BDA6104E01E4AD2692D
:100BB00082431D4BDA61704729B11B4AD268024358
:100BC000194BDA6004E0184AD2688243164BDA60A7
:100BD000704729B1144A12690243134B1A6104E0A9
:100BE000114A12698243104B1A6170471249403909
:100BF000086070470F49C86470470B49C871704757
:100C00000948406A40F080700749486270470146D1
:100C10000020054A92680A400AB1012000E0002045
:100C20007047014988727047001002400000FFF8C9
:100C3000FFFFF6FE000042428004424200127A00AA
:100C400000093D00140000202400002010B50446D7
:100C5000FE48844208D10121C014FFF7ADFF0021F6
:100C6000E014FFF7A9FFC4E0B4F1804F08D10121DF
:100C70000846FFF7AEFF00210120FFF7AAFFB8E00A
:100C8000F348844208D101210220FFF7A2FF00218E
:100C90000220FFF79EFFACE0EE48844208D101211C
:100CA0000420FFF796FF00210420FFF792FFA0E049
:100CB000E948844208D101210820FFF78AFF00217A
:100CC0000820FFF786FF94E0E448844208D1012120
:100CD0001020FFF77EFF00211020FFF77AFF88E049
:100CE000DF48844208D101212020FFF772FF002154
:100CF0002020FFF76EFF7CE0DA48844208D1012112
:100D00004014FFF759FF00216014FFF755FF70E012
:100D1000D548844209D10121C804FFF74DFF0021C5
:100D20004FF40020FFF748FF63E0D048844209D128
:100D300001210805FFF740FF00214FF48010FFF765
:100D40003BFF56E0CA48844209D101214805FFF71C
:100D500033FF00214FF40010FFF72EFF49E0C54894
:100D6000844208D101214020FFF733FF00214020B9
:100D7000FFF72FFF3DE0C048844208D101218020C9
:100D8000FFF727FF00218020FFF723FF31E0BB485A
:100D9000844208D101218015FFF71BFF0021A01517
:100DA000FFF717FF25E0B648844209D10121080466
:100DB000FFF702FF00214FF48030FFF7FDFE18E03F
:100DC000B048844209D101214804FFF7F5FE002113
:100DD0004FF40030FFF7F0FE0BE0AB48844208D13F
:100DE00001218804FFF7E8FE00214FF48020FFF77F
:100DF000E3FE10BD00220288944B98420ED0994B1E
:100E000098420BD0B0F1804F08D0914B984205D05A
:100E1000904B984202D0904B984204D14FF68F737A
:100E20001A404B881A438D4B984207D08C4B9842FE
:100E300004D04FF6FF431A40CB881A4302808B88B8
:100E400083850B880385814B98420BD0854B984254
:100E500008D08B4B984205D08A4B984202D08A4BDF
:100E6000984201D10B7A038601238382704770B5C3
:100E7000002400220023058C4FF6FE7635400584C1
:100E8000028C8388048B4FF68F752C40B51E2C4046
:100E90000D882C43751E2A400D892A434D882A430C
:100EA0006A4DA8420BD06F4DA84208D0744DA8429D
:100EB00005D0744DA84202D0734DA84213D14FF60D
:100EC000F7752A404D892A434FF6FB752A408D88D5
:100ED0002A434FF6FF652B404FF6FF552B408D8977
:100EE0002B43CD892B4383800483CD888586028460
:100EF00070BD70B5002400220023058C4FF6EF76FC
:100F000035400584028C8388048B48F6FF752C409D
:100F10004FF6FF452C400D884FF6FF7606EA052573
:100F20002C434FF6DF752A400D8906EA05152A4342
:100F30004D8806EA05152A43444DA84202D0494D82
:100F4000A8421DD14FF67F752A404D894FF6FF7696
:100F500006EA05152A434FF6BF752A408D8806EA32
:100F600005152A434FF6FF352B404FF2FF752B40F6
:100F70008D8906EA85052B43CD8906EA85052B4335
:100F800083800483CD880587028470BD70B50024FA
:100F900000220023058C4FF6FF6635400584028C45
:100FA0008388848B4FF68F752C404FF6FC752C4050
:100FB0000D882C434FF6FF552A400D894FF6FF76DA
:100FC00006EA05252A434D8806EA05252A431F4DD2
:100FD000A84202D0234DA8421DD14FF2FF752A40EE
:100FE0004D894FF6FF7606EA05252A434FF6FF3571
:100FF0002A408D8806EA05252A434EF6FF752B40C8
:101000004DF6FF752B408D8906EA05152B43CD89DA
:1010100006EA05152B4383808483CD888587028467
:1010200070BD70B5002200230024058C4EF6FF76BB
:1010300035400584038C8488828B48F6FF752A40EE
:101040004FF6FF452A400D8820E00000002C0140AB
:101050000004004000080040000C00400010004068
:101060000014004000340140004C01400050014099
:101070000054014000180040001C004000200040C7
:101080000040014000440140004801404FF6FF7617
:1010900006EA05252A434DF6FF752B400D8906EA21
:1010A00005352B434D8806EA05352B43FA4DA842FA
:1010B00002D0FA4DA84208D14BF6FF752C408D891D
:1010C0004FF6FF7606EA85152C4384808283CD880F
:1010D000A0F84050038470BD828B4FF2FF331A405A
:1010E0008283828B4FF6FF7303EA01231A438283C4
:1010F0007047F0B50C461546002200210026078CEB
:101100004EF6FF7C07EA0C070784828B018C4FF6B2
:10111000FF7707EA043640F6FF473A404FF6FF777D
:1011200007EA05273A434FF6FF7707EA03373A43C2
:10113000D94FB8420ED0D94FB8420BD0B0F1804F42
:1011400008D0D74FB84205D0D64FB84202D0D64FBC
:10115000B84206D14DF6FF77394046F480573943FF
:1011600005E047F6FF57394044F4805739438283FE
:101170000184F0BD828B4FF6F3731A408283828B19
:101180000A4382837047F0B50C46154600220021C1
:101190000026078C4FF6FF6C07EA0C070784828B4A
:1011A000018C4FF6FF7707EA04264FF60C773A409A
:1011B0004FF6FF7707EA03172F433A43B64FB8427B
:1011C0000ED0B64FB8420BD0B0F1804F08D0B44F1C
:1011D000B84205D0B34FB84202D0B34FB84206D19F
:1011E0004FF6FF57394046F48077394305E04FF218
:1011F000FF57394044F48077394382830184F0BD3E
:10120000028B4FF2FF331A400283028B4FF6FF73BB
:1012100003EA01231A4302837047F0B50C461546D2
:10122000002200210026078C4FF6EF7C07EA0C070E
:101230000784028B018C4FF6FF7707EA041640F60D
:10124000FF473A404FF6FF7707EA03373A434FF636
:10125000FF7707EA05273A438F4FB8420ED08F4FEA
:10126000B8420BD0B0F1804F08D08D4FB84205D0B6
:101270008C4FB84202D08C4FB84206D14FF6DF7780
:10128000394046F01007394305E04FF65F773940A3
:1012900044F01007394302830184F0BD028B4FF6FE
:1012A000F3731A400283028B0A4302837047F0B53E
:1012B0000C46154600220021068C4FF6FE773E4074
:1012C0000684028B018C4FF60C7632407E1C06EAB7
:1012D00003162E433243704EB0420ED06F4EB042D2
:1012E0000BD0B0F1804F08D06D4EB04205D06D4E9E
:1012F000B04202D06C4EB04206D14FF6FD7631407E
:1013000044F00106314305E04FF6F576314044F0F4
:101310000106314302830184F0BD70B505460C46D9
:101320005D4885420ED05D4885420BD0B5F1804FB7
:1013300008D05B48854205D05A48854202D05A48B9
:10134000854200D100E000BF208850B92389A288DF
:1013500061882846FFF7ABFFE1882846FFF79EFF2C
:1013600025E0208804280AD12389A288618828469C
:10137000FFF753FFE1882846FFF742FF17E0208878
:1013800008280AD12389A28861882846FFF7FBFE36
:10139000E1882846FFF7EEFE09E02389A2886188EC
:1013A0002846FFF7A6FEE1882846FFF795FE70BDA8
:1013B0002DE9F04105460C4600260127608808B952
:1013C000022600E00026A088012801D1022700E0C3
:1013D00001272088A0B92389A28861882846FFF7C1
:1013E00066FFE1882846FFF759FF23893A463146D0
:1013F0002846FFF712FFE1882846FFF701FF13E0B8
:101400002389A28861882846FFF707FFE1882846DC
:10141000FFF7F6FE23893A4631462846FFF747FF95
:10142000E1882846FFF73AFFBDE8F0810A884B883B
:101430001A438B881A43CB881A430B891A434B896A
:101440001A438B891A43A0F8442070474FF6FF7166
:10145000818000210180C18041800172704700219C
:10146000018041808180C180018141818181C18170
:101470007047002101804180012181800021C180CD
:10148000018170470021018041808180C1800181FC
:101490004181818170470000002C014000340140EF
:1014A0000004004000080040000C004021B1028808
:1014B00042F00102028004E002884FF6FE731A40F7
:1014C0000280704731B1B0F8442042F40042A0F8E5
:1014D000442005E0B0F84420C2F30E02A0F84420F6
:1014E00070471AB183890B43838102E083898B4360
:1014F000838170478182704741EA0203A0F8483037
:1015000070471AB183890B43838102E083898B433F
:101510008381704701894FF6F8721140018170474D
:101520000A46002101894FF68F731940114301814A
:10153000704730B504460D4629462046FFF7F0FFB8
:10154000208940F00700208130BD2DE9F04104469C
:101550000D4616461F46602D06D13B4601223146F8
:101560002046FFF75AFE05E03B4601223146204661
:10157000FFF79DFE29462046FFF7D2FF208940F065
:1015800007002081BDE8F08130B50C4600210189BB
:10159000C9B24FF6FF7505EA0325154325432943D4
:1015A000018130BD2DE9F04105460E4617469846AB
:1015B000002443463A4631462846FFF7E5FF2C898A
:1015C0004FF6F870044044F007044FF68F70044063
:1015D00044F070042C81BDE8F081F0B504460D465E
:1015E00016461F463B46324629462046FFF7CCFFAB
:1015F000208940F480402081F0BD018582827047BF
:101600000A46002101884FF68F731940114301806B
:101610007047F0B50C4615461E46002100220023F7
:101620000189028B038C4FF6F877394021434FF63E
:10163000FC473A4040F201173A434FF6DD773B4012
:101640004FF6FF7707EA06172F433B4301810283DA
:101650000384F0BD0A460021018B4FF68F731940B9
:101660001143018370470A460021018B48F6FF733E
:1016700019404FF6FF7303EA0223194301837047B1
:101680000A460021818B4FF68F73194011438183E5
:1016900070470A460021818B48F6FF7319404FF6C8
:1016A000FF7303EA022319438183704721B1028843
:1016B00042F08002028004E002884FF67F731A40F5
:1016C0000280704721B1828842F00402828004E0E7
:1016D00082884FF6FB731A408280704721B182885E
:1016E00042F00802828004E082884FF6F7731A40C5
:1016F0008280704721B1828842F00102828004E03A
:1017000082884FF6FE731A40828070470A46002195
:10171000018B4FF6F77319401143018370470A4656
:101720000021018B4FF2FF7319404FF6FF7303EA5C
:1017300002231943018370470A460021818B4FF62B
:10174000F77319401143818370470A460021818B4A
:101750004FF2FF7319404FF6FF7303EA0223194358
:10176000818370470A460021018B4FF6FB731940B5
:101770001143018370470A460021018B4FF6FF3366
:1017800019404FF6FF7303EA0223194301837047A0
:101790000A460021818B4FF6FB7319401143818368
:1017A00070470A460021818B4FF6FF3319404FF6F0
:1017B000FF7303EA02231943818370470A4600211D
:1017C000018B4FF67F7319401143018370470A461E
:1017D0000021018BC1F30E014FF6FF7303EA0223D0
:1017E0001943018370470A460021818B4FF67F73AE
:1017F00019401143818370470A460021818BC1F350
:101800000E014FF6FF7303EA0223194381837047E9
:101810000A460021018C4FF6FD73194011430184E3
:1018200070470A460021018C4FF6F77319401143A7
:10183000018470470A460021018C4FF6DF7319407E
:101840004FF6FF7303EA02131943018470470A46F7
:101850000021018C4FF67F7319404FF6FF7303EAA6
:1018600002131943018470470A460021018C4FF688
:10187000FF5319404FF6FF7303EA02231943018413
:1018800070470A460021018C4FF2FF7319404FF652
:10189000FF7303EA02231943018470470A460021BB
:1018A000018C4DF6FF7319404FF6FF7303EA0233C4
:1018B00019430184704730B5002301248C40A3B242
:1018C000048C9C430484048C02FA01F5ADB22C43D1
:1018D000048430BD30B5002304248C40A3B2048CB2
:1018E0009C430484048C02FA01F5ADB22C430484B9
:1018F00030BD70B50346002000241846183001257D
:101900008D40ACB21D8CA5431D8409B1082909D1B5
:1019100000EB6100056825F070050560056815435A
:1019200005600EE00D1FC5F34E052844056825F43B
:10193000E045056005684FF6FF7606EA0226354366
:10194000056070BD21B1028842F00202028004E00D
:1019500002884FF6FD731A400280704721B1028859
:1019600042F00402028004E002884FF6FB731A4042
:101970000280704721B1828842F08002828004E0B8
:1019800082884FF67F731A408280704702884FF634
:10199000F7731A40028002880A43028070478288E7
:1019A0004FF68F731A40828082880A438280704784
:1019B00002894FF6F8731A40028102890A430281B4
:1019C000704702894FF67F731A40028102890A43E9
:1019D0000281704781847047818570478186704796
:1019E0000187704781877047A0F8401070470288D0
:1019F0004FF6FF431A40028002880A430280704774
:101A00000146888E70470146088F70470146888FCF
:101A100070470146B1F8400070470146888C704716
:101A20000146088D704702460020138A0B400BB117
:101A3000012000E000207047CA430282704730B5A1
:101A40000246002000230024158A05EA0103958937
:101A500005EA010413B10CB1012000E0002030BD03
:101A6000CA4302827047000010B54FF4C060FEF711
:101A700071FC00F02BF800F03DFC00F06AFC10BD9A
:101A8000FEF7E7FBFFF7F0FF03E00948006800F00E
:101A90008FF9FAE710B500F0A2FB10BD01B502E026
:101AA0000098401E009000980028F9D108BD000061
:101AB00028000020704700BFFEE700BFFEE700BF20
:101AC000FEE700BFFEE770477047704708B5012189
:101AD0000C20FFF757F84FF40060ADF8000010201D
:101AE0008DF8030003208DF802006946D048FEF708
:101AF0008DFD4FF40061CE48FEF737FE40F20740FF
:101B0000ADF800006946CB48FEF780FD08BD10B572
:101B10000421C748FEF727FEC748FFF7BFFF08218B
:101B2000C348FEF720FEC448FFF7B8FF4FF48061BA
:101B3000BF48FEF718FEC048FFF7B0FF0221BD48BE
:101B4000FEF711FEBC48FFF7A9FF4021B848FEF799
:101B50000AFEB948FFF7A2FF8021B548FEF703FE51
:101B6000B548FFF79BFF1021B148FEF7FCFDB248D6
:101B7000FFF794FF2021AE48FEF7F5FDAE48FFF7D2
:101B80008DFF0421AB48FEF7EEFDAB48FFF786FF63
:101B90004FF48061A748FEF7E6FDA748FFF77EFFF8
:101BA00010BD10B50421A348FEF7DFFD0221A148B6
:101BB000FEF7DBFD4FF480619E48FEF7D6FD08215D
:101BC0009B48FEF7D2FD4FF480619948FEF7CDFDAA
:101BD00080219748FEF7C9FD40219548FEF7C5FDD5
:101BE00020219348FEF7C1FD10219148FEF7BDFD6D
:101BF00004218F48FEF7B9FD8F48FFF74FFF10BD56
:101C000010B540F6C4148D48006800F083FC00F065
:101C100077FC062190FBF1F201FB12008849086075
:101C20008848FFF73BFF86480068062807D2DFE8B0
:101C300000F08B031E3A55708348407800B183E072
:101C400001208249487004217948FEF78CFD01216A
:101C5000204600F0D0FB7C48407800B174E00020C2
:101C60007A49487004217248FEF77FFD6CE076489F
:101C7000807800B168E001207449887081026C4866
:101C8000FEF771FD0221204600F0B5FB6E4880781A
:101C900000B159E000206D4988704FF480616448BC
:101CA000FEF763FD50E06848C07800B14CE00120C9
:101CB0006649C87040215E48FEF755FD0321204665
:101CC00000F099FB6048C07800B13DE000205F491A
:101CD000C87040215648FEF748FD35E05A48007963
:101CE00000B131E001205949087110215048FEF738
:101CF0003AFD0421204600F07EFB5348007900B1F4
:101D000022E000205149087110214948FEF72DFDBD
:101D10001AE04D48407900B116E001204B49487166
:101D200004214448FEF71FFD0521204600F063FB17
:101D30004548407900B107E000204449487104213A
:101D40003C48FEF712FD00BF00BF10BD10B50124D6
:101D5000E1023748FEF707FD01E0601EC4B2002C27
:101D6000FBD14FF400613248FEF7FFFC082401E08C
:101D7000601EC4B2002CFBD110BD10B505244FF479
:101D800000612B48FEF7EFFC01E0601EC4B2002C9E
:101D9000FBD14FF400612648FEF7E7FC052401E083
:101DA000601EC4B2002CFBD1032000F07EFB10BDEE
:101DB00070B50546280C26490870280A48708D70B1
:101DC00007240CE022480078204100F0010616B1FB
:101DD000FFF7D3FF01E0FFF7B9FF601E04B2002C4C
:101DE000F0DA07240CE01A484078204100F00106A0
:101DF00016B1FFF7C2FF01E0FFF7A8FF601E04B2B3
:101E0000002CF0DA07240CE011488078204100F023
:101E1000010616B1FFF7B1FF01E0FFF797FF601E63
:101E200004B2002CF0DA642000F015FB70BD000055
:101E300000080140000C0140FFFF4F004800002057
:101E400034000020FFFF0200410000203800002085
:101E50003E00002008B54FF4C060FEF77BFA282052
:101E60008DF8000001208DF801008DF802008DF83A
:101E700003006846FEF773FA28208DF80000012061
:101E80008DF801008DF802006846FEF768FA172009
:101E90008DF8000001208DF801008DF802006846E1
:101EA000FEF75DFA06208DF8000001208DF8010094
:101EB0008DF802006846FEF752FA17208DF80000F0
:101EC00001208DF801008DF802006846FEF747FA00
:101ED00008BD0EB5FFF7BEFF01210520FEF752FE3B
:101EE0004FF40060ADF8080028208DF80B0002A91F
:101EF0009448FEF78BFB0B210020FEF79DFC4FF46E
:101F00000060009000208DF8040008208DF8050086
:101F100001208DF806006846FEF798FA0121052099
:101F2000FEF730FE4FF48050ADF8080028208DF801
:101F30000B0002A98348FEF769FB0C210020FEF785
:101F40007BFC4FF48050009000208DF804000820A6
:101F50008DF8050001208DF806006846FEF776FA38
:101F600001210920FEF70EFE4020ADF808002820D0
:101F70008DF80B0002A97448FEF748FB06210120EA
:101F8000FEF75AFC4020009000208DF80400082045
:101F90008DF8050001208DF806006846FEF756FA18
:101FA00001210920FEF7EEFD0120ADF808002820F0
:101FB0008DF80B0002A96448FEF728FB00210120E0
:101FC000FEF73AFC0120009000208DF80400082064
:101FD0008DF8050001208DF806006846FEF736FAF8
:101FE00001210920FEF7CEFD2020ADF808002820B1
:101FF0008DF80B0002A95448FEF708FB05210120CB
:10200000FEF71AFC2020009000208DF80400082024
:102010008DF8050001208DF806006846FEF716FAD7
:102020000EBD10B54FF40060FEF776FAB8B1474820
:10203000407880B100BF4FF400614248FEF779FB61
:102040000128F8D004203F491031086008200860BA
:1020500001203F4948704FF40060FEF76EFA4FF4DC
:102060008050FEF759FAD0B13848807898B100BF57
:102070004FF480513348FEF75CFB0128F8D04FF451
:10208000806030491031086002202F49103108600B
:1020900001202F4988704FF48050FEF74EFA10BD92
:1020A00010B54020FEF738FAA8B12848C07878B1BA
:1020B00000BF40212448FEF73CFB0128F9D0402016
:1020C0002049103108608020086001202049C87034
:1020D0004020FEF732FA2020FEF71EFAA8B11B4876
:1020E000407978B100BF20211748FEF722FB012874
:1020F000F9D0042014491031086000020860012062
:10210000134948712020FEF718FA10BD10B50120C0
:10211000FEF702FAA8B10D48007978B100BF01219D
:102120000948FEF706FB0128F9D0102005491031B7
:102130000860202008600120054908710120FEF791
:10214000FCF910BD00080140000C014038000020DF
:102150004100002030B50146B1F1807F01D301205C
:1021600030BD21F07F40401E4FF0E02250615017FB
:102170000F22002807DA13071D0E404B00F00F0452
:10218000241F1D5503E013071C0E3D4B1C5400BFBC
:1021900000204FF0E0229061072010610020DFE76F
:1021A00010B5384800683849B0FBF1F42046FFF715
:1021B000D1FF08B100BFFEE710BD01B5334900985B
:1021C00008604FF0E020006940F001004FF0E0218E
:1021D000086100BF2D4800680028FBD108BD2B48CE
:1021E000006828B129480068401E2849086002E0BC
:1021F000274826490860704731B5224800682249BF
:10220000B0FBF1F52846FFF7A5FF002408E000BF6A
:102210004FF0E020006900F480300028F8D0641C02
:1022200000988442F3D34FF0E020006920F00100D1
:102230004FF0E021086138BD31B5124800684FF415
:102240007A71B0FBF1F52846FFF784FF002408E01F
:1022500000BF4FF0E020006900F480300028F8D083
:10226000641C00988442F3D34FF0E020006920F012
:1022700001004FF0E021086138BD000018ED00E0DA
:1022800000E400E00000002040420F004800002071
:10229000FFFF0F000EB59348FEF7D8FC0121022086
:1022A000FEF77DFC41F61F40ADF804000920ADF8B3
:1022B00000000020ADF80200ADF80600694689482C
:1022C000FEF798FD01218748FFF7B6FB01218548FD
:1022D000FFF7ECF800BF01218248FFF7A4FB0128BB
:1022E000F9D101217F48FFF7A7FB00217D48FFF7C7
:1022F000DDF80EBD1FB57C48FEF7A8FC01210420C7
:10230000FEF74DFC0120ADF808002420ADF80400D4
:102310000020ADF80600ADF80A0001A97248FEF7EA
:1023200069FD01217048FFF787FB00216E48FFF728
:10233000BDF81E208DF8000001208DF8010002205C
:102340008DF8020001208DF803006846FEF707F8BB
:102350001FBD1FB54FF08040FEF778FC01210846F5
:10236000FEF71DFC0220ADF808000620ADF80400C1
:102370000020ADF80600ADF80A0001A94FF080403A
:10238000FEF738FD01218807FFF756FB00214FF0CB
:102390008040FFF78BF81C208DF8000001208DF89D
:1023A000010002208DF8020001208DF8030068462C
:1023B000FDF7D5FF1FBD10B501214B48FFF73FFBCF
:1023C00020B14A480068401E48490860012146483B
:1023D000FFF746FB10BD10B501218807FFF72FFB63
:1023E00020B143480068401E414908600121880728
:1023F000FFF736FB10BD2DE9F04107460E4609E018
:10240000FFF748FF3B48805D20B13B48805D08B145
:10241000BDE8F0813800A7F10107F1D1012415E0F2
:102420003548005D80B13348005D68B9012506E09C
:1024300000203049485530494855681CC5B2062D22
:10244000F6DBFFF7AEFB03E0601CC4B2062CE7DB53
:1024500000BF00BFDCE710B5044612E001212248AE
:10246000FFF724F800BF01211F48FFF7DCFA01281D
:10247000F9D101211C48FFF7DFFA00211A48FFF7C4
:1024800015F82000A4F10104E8D110BD08E000BF58
:102490001A490A780978491E184B1970002AF7D191
:1024A0000100A0F10100F2D1704710B5044613E01D
:1024B00001218807FEF7FAFF00BF01218807FFF717
:1024C000B2FA0128F9D101218007FFF7B5FA0021FE
:1024D0004FF08040FEF7EAFF2000A4F10104E7D1AD
:1024E00010BD000000040040000800404C00002027
:1024F000500000204100002038000020540000203F
:102500000649074A0868504343F2390210440860FC
:1025100040087047014908607047000058000020DB
:102520006D4EC641064C074D06E0E06840F00103E1
:1025300094E8070098471034AC42F6D3FDF7FCFD51
:10254000682500088825000802E008C8121F08C195
:10255000002AFAD170477047002001E001C1121F24
:10256000002AFBD1704700008825000800000020E9
:102570005C00000048250008E42500085C000020FD
:10258000040200005825000800A24A0400000000D0
:102590000000000001020304060708090000000013
:1025A00001020304010203040607080902040608E5
:1025B000FFFFFF000000000000000000000000001E
:1025C000000000000000000000000000000000000B
:1025D00000000000000000000000000009000000F2
:0425E00000000000F7
:0400000508000131BD
:00000001FF
